:02000002B0004C
:1040000000400B007C520B00000006000C00050273
:0840100004010410000000008F
:04401800984F0B00B2
:10401C0009480A49884208B505D0094A824202D0AB
:10402C00121A00F001FF0748074A0021121A00F08B
:10403C0009FF014808BD00BF40E60320E8510B0012
:10404C00ACE60320ACE60320EDE7032070B5074E89
:10405C00074C00F0B5FDA41BA4080025AC4200D110
:10406C0070BD56F8043B98470135F7E790510B00AB
:10407C00B4510B0000F013B808B500F01BF8BDE804
:10408C00084000F055BD00F0C9B900F0CFB9007878
:10409C00B0FA80F04009704701230370704708B5EF
:1040AC000021072000F0FCFDBDE80840012105209F
:1040BC0000F0F6BD08B5072000F01CFE014600B16B
:1040CC000121BDE80840052000F0FBBD10B5074BF1
:1040DC00074A9A600024C3E90044032000F012F957
:1040EC0021460120BDE8104000F014B9ACE60320D5
:1040FC000000FFFF08B5024B1B685B6C019308BD09
:10410C004802030008B5024B1B685B68019308BDAD
:10411C001802030008B5024B1B685B69019308BDCC
:10412C001802030008B5024B1B689B68019308BD7D
:10413C002C02030008B5024B1B68DB68019308BD19
:10414C002C02030008B5024B1B681B69019308BDC8
:10415C002C02030008B5024B1B685B69019308BD78
:10416C002C02030008B5024B1B681B6A019308BDA7
:10417C002802030008B5024B1B685B6A019308BD5B
:10418C002802030008B5024B1B689B6A019308BD0B
:10419C002802030008B5024B1B68DB6A019308BDBB
:1041AC002802030008B5024B1B681B6B019308BD6A
:1041BC002802030008B5024B1B685B6B019308BD1A
:1041CC002802030008B5024B1B681B6C019308BD49
:1041DC002802030008B5024B1B685B69019308BDFC
:1041EC006402030008B5024B1B689B68019308BD71
:1041FC006802030008B5024B1B68DB68019308BD1D
:10420C006802030008B5024B1B68DB69019308BD0B
:10421C003002030008B5024B1B681B6A019308BDF2
:10422C003002030008B5024B1B68DB68019308BD24
:10423C003C02030008B5024B1B681B69019308BDC7
:10424C003C02030008B5024B1B685B69019308BD77
:10425C003C02030008B5024B1B689B69019308BD27
:10426C003C02030008B5024B1B68DB69019308BDD7
:10427C003C02030008B5024B1B681B6A019308BD86
:10428C003C02030008B5024B1B689B6A019308BDF6
:10429C003C02030008B5024B1B681B6C019308BD64
:1042AC003C02030008B5024B1B681B68019308BD58
:1042BC004C02030008B5024B1B681B69019308BD37
:1042CC004C02030008B5024B1B685B69019308BDE7
:1042DC004C02030008B5024B1B689B69019308BD97
:1042EC004C02030008B5024B1B68DB69019308BD47
:1042FC004C02030008B5024B1B681B6A019308BDF6
:10430C004C02030008B5024B1B685B68019308BDA7
:10431C002002030008B5024B1B68DB6A019308BD41
:10432C002002030008B5034B1B68D3F888300193B7
:10433C0008BD00002002030008B5034B1B68D3F82E
:10434C009430019308BD00002002030008B5024B15
:10435C001B68DB6B019308BD4402030008B5024BDC
:10436C001B685B68019308BD4002030008B5024B53
:10437C001B689B68019308BD4002030008B5024B03
:10438C001B68DB68019308BD4002030008B5024BB3
:10439C001B681B69019308BD4002030008B5024B62
:1043AC001B685B69019308BD4002030008B5024B12
:1043BC001B689B69019308BD4002030008B5024BC2
:1043CC001B68DB69019308BD4002030008B5024B72
:1043DC001B681B6A019308BD4002030008B5024B21
:1043EC001B681B6B019308BD4002030008B5024B10
:1043FC001B685B6B019308BD4002030008B5024BC0
:10440C001B681B6C019308BD4002030008B5024BEE
:10441C001B685B6C019308BD4002030008B5024B9E
:10442C001B681B68019308BD1C02030008B5024BF6
:10443C001B685B68019308BD1C02030008B5024BA6
:10444C001B681B6C019308BD1C02030008B5024BD2
:10445C001B685B6C019308BD1C020300024800231F
:10446C000360FFF747BE00BFB8E603200022406898
:10447C001146FFF7ABBF002240681146FFF7B6BFED
:10448C0040680022FFF7AABF4068002281F00101BA
:10449C00FFF794BF002340681A461946FFF786BF02
:1044AC00002340681A461946FFF778BF002240687F
:1044BC001146FFF76BBF002240681146FFF756BF4D
:1044CC00406800220221FFF759BF002340681A46BA
:1044DC00FFF744BF024B03225A60024A1A6070472E
:1044EC00BCE60320B44F0B007047F8B506461546E2
:1044FC000C468F18BC4206D0336814F8011B9B681D
:10450C0030469847F6E72846F8BD007C0022FFF7B6
:10451C0029BE007C0021FFF72DBE007C0021FFF797
:10452C0031BE007C0021FFF735BE007C0021FFF777
:10453C0039BE10B514210446FFF7A7FD204610BD67
:10454C0038B5044615464FF47A730022C4E90123AA
:10455C00094B2174084623602946FFF733FEBF3010
:10456C0008D16B69DB0705D56868FFF75FFFE86862
:10457C00FFF75CFF204638BDF04F0B00704710B5BD
:10458C0018210446FFF781FD204610BDF0B5037DD0
:10459C00062B8DB00E4600F104074FF0000412D02C
:1045AC0000F1080515F8011D0A22304600F043F908
:1045BC00AF42044419D0002CF4D02E21304600F028
:1045CC0037F90444EEE72F236A4639460A208DF862
:1045DC000040FFF7FFFD684600F06AFC33680246B6
:1045EC00DB68694630469847044620460DB0F0BD5E
:1045FC0010B5054B0446112240F8043B002100F095
:10460C0021FC204610BD00BF18500B000346074A82
:10461C0010B543F8042B01F1100251F8044B43F888
:10462C00044B9142F9D10A781A7010BD18500B0046
:10463C0010B59DF8084044EA032343EA024242EADB
:10464C00016104234160037510BD000007B5064BE2
:10465C000360CB7800938B784A780978FFF7E8FFF2
:10466C0003B05DF804FB00BF18500B00014B024A6D
:10467C001A607047C4E6032024500B0000234068E6
:10468C001A46FFF76BBE406800220221FFF776BE88
:10469C00002240681146FFF769BE002240681146AF
:1046AC00FFF774BE002340681A461946FFF776BE22
:1046BC00002340681A461946FFF778BE406800216F
:1046CC00FFF79CBE40680021FFF7A0BE40680022A7
:1046DC0081F00101FFF772BE40680022FFF77EBE39
:1046EC00002240681146FFF781BE00224068114647
:1046FC00FFF76CBE2DE9F04395B014460D46074606
:10470C00FFF776FF00211C220DA8009100F09AFB08
:10471C0040230C9320466B460CAA0021FFF76AFD40
:10472C00044600284BD1024601216868FFF72EFE93
:10473C000221804622466868FFF728FE009E8146CB
:10474C002146002E3BD0002939D17368022B03D0AF
:10475C000A2B11D0F669F4E7B8F1000FFAD07169A1
:10476C0006A8043107ADFFF771FF0FCD3C1D0FC438
:10477C002B6823704146EDE7B9F1000FEAD074695C
:10478C00102201A800F05EFB06238DF8143001AD59
:10479C0004F108031834186859682A4603C2083310
:1047AC00A3421546F7D101A906A807ADFFF72EFFC6
:1047BC000FCD3C1D0FC42B6823704946CAE70098E7
:1047CC00FFF710FD384615B0BDE8F083024B034AE5
:1047DC001A6000225A607047C8E6032030500B0064
:1047EC00F8B506460D468F180024BD420CD0336830
:1047FC0015F8011B9B6830469847031E01DB1C44CF
:10480C00F3E7002C08BF1C462046F8BD13B5044640
:10481C00084659B1019100F04BFB23680199DB6804
:10482C000246204602B0BDE81040184702B010BD49
:10483C0003689B68184730B58BB00023012A8DF8AC
:10484C00243098BF0A2209AC0D46B1FBF2F101FBF2
:10485C00125303F0FF03092B94BF30333733DBB211
:10486C00AA4204F8013DEFD92146FFF7CFFF0BB068
:10487C0030BD0000014B00229A607047D0E6032047
:10488C0010B5044608462170FFF7BCFC002363609A
:10489C00204610BD054B02221A60054B054A9A6052
:1048AC000020C3E90000FFF72DBD00BFECE603209C
:1048BC00E0E603200000FFFF024B1A68024B1A606F
:1048CC00704700BF40E60320F0E6032070474174B8
:1048DC00704708B5007CFFF7D5FC20EAE07008BDF6
:1048EC0008B5007CFFF7A6FC20EAE07008BD08B50F
:1048FC00007CFFF7AFFC40EAE07008BD08B5007C17
:10490C00FFF7A0FC40EAE07008BD007CFFF7AABCF2
:10491C0037B5457C04462DB1207C03B0BDE8304052
:10492C00FFF780BC007C0191FFF7ACFC00280199DB
:10493C00F2DC284603B030BD10B514210446FFF755
:10494C00A4FB204610BD000010B54FF47A7304464A
:10495C00084611460022C4E90123044B23600123BD
:10496C0020746374FFF796FC204610BD88500B0032
:10497C00417470477047704708B50021007CFFF701
:10498C00A9FC40EAE07008BD08B50121007CFFF7E6
:10499C00A1FC40EAE07008BD08B5007CFFF792FC72
:1049AC0020EAE07008BD08B5007CFFF783FC20EA24
:1049BC00E07008BD13B50446007C0191FFF782FC42
:1049CC000028019901DC607C20B1207CFFF78AFC77
:1049DC0020EAE07002B010BD007CFFF78BBC10B574
:1049EC0014210446FFF751FB204610BD10B54FF4BF
:1049FC007A73044608460021C4E90113044B236072
:104A0C000123207463741146FFF74CFC204610BD43
:104A1C00B8500B0010B514220446002100F012FA15
:104A2C00204610BD10B50F4C88B003A8FFF7F2FF5D
:104A3C002178BFF35B8F11F001010FD1204601915A
:104A4C00FFF725FB019948B103AA0748FFF7CEFFF2
:104A5C002046FFF721FB054800F0E0F9024808B0BA
:104A6C0010BD00BFF4E60320F8E6032081490B00DB
:104A7C00002240681146FFF789BC002240681146AD
:104A8C00FFF7A4BC002240681146FFF7AFBC40689A
:104A9C000022FFF7A3BC4068002281F00101FFF760
:104AAC008DBC002340681A461946FFF77FBC0023D3
:104ABC0040681A461946FFF771BC0022406811463F
:104ACC00FFF754BC406800220221FFF757BC0023BB
:104ADC0040681A46FFF742BC024B04225A60024A55
:104AEC001A6070470CE70320E8500B00014B18606C
:104AFC00704700BF44E6032008B50B4B43B1FFF7EA
:104B0C0091FF03681B699847002801DDAFF3008013
:104B1C00064B43B100F05CF903681B699847002809
:104B2C0001DDAFF3008008BD0000000000000000B4
:104B3C0008B5FFF7E1FFFFF7EDFA014B186008BD70
:104B4C0028E703200548064A064908B5121A00F062
:104B5C006BF9054B054A1A6008BD00BF00F4032031
:104B6C0004F40320E4510B0000F403201E1C279ACC
:104B7C0007B5002300931A466FF07701FFF7DCFBB3
:104B8C0003B05DF804FB000007B543880A2B08D07E
:104B9C00502B0BD1094B1B684BB103B05DF804EBE8
:104BAC001847FFF7E5FF03B05DF804FB0023009303
:104BBC001A466FF07701FFF7BFFBF4E718E7032005
:104BCC0010B512480021FFF741FC114B1A68114B2C
:104BDC009A42114B0CBF012200221A7001D0FFF730
:104BEC00B1FFFFF78FFA044600F034F90B4B13B109
:104BFC002046AFF3008000210848FFF7A7FBBDE873
:104C0C00104007480021FFF78DBB00BFF94A0B008D
:104C1C0000F403201E1C279A14E703200000000058
:104C2C00954B0B00232813B502D9002002B010BD00
:104C3C00A0F10B03022B1AD8174C2178BFF35B8F12
:104C4C0011F001010BD120460191FFF720FA0199D7
:104C5C0028B11248FFF714FE2046FFF71DFA0F4B40
:104C6C001878FFF7D7FA0028DFD10120DEE70128FA
:104C7C0009D800F06DF80021007CFFF79BFA80F05A
:104C8C000100C0B2D2E709380128EED800F0A0F834
:104C9C00007CFFF7EFFAF2E71CE7032020E7032084
:104CAC00232838B504460D460AD8FF2908D0FFF74B
:104CBC00B9FF28B129462046BDE83840FFF732BA83
:104CCC0038BD38B504460D46FFF734FAFF2810D02E
:104CDC00062804D84D2323FA00F0C30709D4204634
:104CEC00FFF7A0FF28B129462046BDE83840FFF762
:104CFC0029BA38BD10B50446FFF71CFA031FDBB206
:104D0C00012B08D92046FFF78DFF20B12046BDE8C6
:104D1C001040FFF71FBA002010BD704738B50A4B82
:104D2C0003600123044643610849202000F074F815
:104D3C00202560600549A560284600F06DF8C4E99F
:104D4C000305204638BD00BF180001001C510B00A4
:104D5C0030B50E4D2978BFF35B8F11F0010487B08D
:104D6C0011D12846FFF793F968B16846FFF7D6FFD3
:104D7C006A4621460648FFF7E3FB2846FFF78CF905
:104D8C00044800F04BF8024807B030BD2CE7032074
:104D9C0030E70320274D0B007047000038B5044660
:104DAC0014252A46002100F04DF82580402507499E
:104DBC0025812846258200F02FF80449606028469A
:104DCC0000F02AF8E060204638BD00BF1C510B00F3
:104DDC0030B50E4D2978BFF35B8F11F0010487B00D
:104DEC0011D12846FFF753F968B101A8FFF7D6FF98
:104DFC0001AA21460648FFF7A7FD2846FFF74CF904
:104E0C00044800F00BF8024807B030BD44E703201B
:104E1C0048E70320A54D0B00FFF735B900230146E9
:104E2C001A46184600F04CB80A44914200F1FF3380
:104E3C0000D1704710B511F8014B03F8014F9142A6
:104E4C00F9D110BD02440346934200D1704703F8D8
:104E5C00011BF9E738B5104B1D68AB6B0446B3B9B1
:104E6C001820FFF7DBFA0246A86320B90B4B0C485D
:104E7C004221FFF7E3FA0B490B4BC0E900130B4B34
:104E8C0083600B23838100210120C2E90401AB6BF9
:104E9C0000221C615A6138BD44E603201D510B00F1
:104EAC0034510B000E33CDAB34126DE6ECDE050045
:104EBC00034613F8012B002AFBD1181A013870474E
:104ECC002DE9F843DFF8B8800646D8F800001F46F5
:104EDC000D46914600F056F8254B1C6834B9254C0C
:104EEC001C60254B13B11B68C4F8883063681F2BFA
:104EFC0007DDD8F8000000F047F84FF0FF30BDE8B0
:104F0C00F8834EB3D4F8880088B91C4B23B9D8F871
:104F1C00000000F038F8F0E74FF48470FFF77EFAE9
:104F2C000028F4D00023C0E94033C4F8880063683B
:104F3C0040F8239001229A4000EB8301D0F8003115
:104F4C001343C0F80031022EC1F8807002BFD0F8B4
:104F5C0004311343C0F804316368D8F800005A1CBC
:104F6C000233626044F8235000F00EF80020C6E7CC
:104F7C00E8E703205CE703200000000029440B0055
:104F8C00A8E6032070477047704700001D400B00D7
:104F9C0059400B0081400B0085400B0000000000C5
:104FAC000000000000000000D7440B00CD440B00B3
:104FBC00C3440B00B9440B00AD440B00A1440B00DF
:104FCC00C9460B00D1460B0095440B008D440B00D9
:104FDC0083440B0079440B0001470B0000000000D8
:104FEC0000000000F5440B003F450B0017450B007B
:104FFC00F7440B001F450B0027450B002F450B00FA
:10500C0037450B00000000000000000099450B0024
:10501C0089450B008B450B0061707000000000008F
:10502C000000000089460B0093460B009D460B00C8
:10503C00A7460B00B1460B00BD460B00C9460B0042
:10504C00D1460B00D9460B00E5460B00ED460B0094
:10505C00F7460B0001470B0025592D256D2D2564B6
:10506C005425483A254D3A2553257A0061736374CB
:10507C00696D65000000000000000000D9480B00BD
:10508C0045490B001D490B00ED470B00ED480B008B
:10509C0009490B00FB480B0017490B00DB480B00C0
:1050AC00DF480B00000000000000000083490B00EB
:1050BC00EB490B00C1490B00ED470B00B3490B004A
:1050CC0085490B0095490B00E5490B00A5490B00E0
:1050DC007D490B000000000000000000DB4A0B00C3
:1050EC00D14A0B00C74A0B007D4A0B00BB4A0B0090
:1050FC00AF4A0B00C9460B00D1460B00A34A0B006C
:10510C009B4A0B00914A0B00874A0B0001470B008E
:10511C00005245454E54206D616C6C6F6320737565
:10512C0063636565646564002F746D702F6A656ECA
:10513C006B696E732D4743432D31302D706970654B
:10514C006C696E652D34385F323032303131323427
:10515C005F313630363138303633392F7372632F36
:10516C006E65776C69622F6E65776C69622F6C69FE
:10517C0062632F7374646C69622F72616E642E6348
:10518C0000000000D9400B0069440B00E1440B0007
:10519C0079460B00D9470B0081480B00A1480B0046
:1051AC00C5480B00E54A0B000000000000000000A1
:0451BC0000000000EF
:1051C000040000001400000003000000474E5500DA
:1051D0004A11A27FE20C9454E7BD1C03FEA11AE41D
:0451E0006EAFB504F5
:0451E40000000000C7
:1051E80078500B0048E60320000000000000000093
:1051F80000000000000000000000000000000000A7
:105208000000000000000000000000000000000096
:105218000000000000000000000000000000000086
:105228000000000000000000000000000000000076
:105238000000000000000000000000000000000066
:0C5248000000000000000000ECE7032064
:10525400FFFFFFFF00000102030405060708090A17
:105264000B0C0D0E0F101112131415161718191A12
:085274001B1C1D1E1F20280059
:04527C00785634121A
:04000003B000401CED
:00000001FF
